:1000000003308A00882B0000FF00030E8301A50047
:100010007F08A4000A08AB008A01A40E0408A60009
:100020002008A7002108A8002208A9002308AA0088
:10003000831383120B1E1E288B182F28260884007A
:100040002708A0002808A1002908A2002A08A30068
:100050002B088A00250E8300FF0E7F0E09008A11EF
:1000600031280B138B138B1B322843104308831644
:100070008700831207101308073093008316140CAF
:10008000031C3F288312130893018316140C031CCE
:10009000462883121308C8004310430883168700BC
:1000A0008312071443104308831687008312071036
:1000B0001308273093008316140C031C5C2883124A
:1000C0001308703093008316140C031C64288312E9
:1000D000431043088316870083120714481B7328B4
:1000E0000030A1009F284310430883168700831225
:1000F00007101308613093008316140C031C7D282D
:100100008312C7014708093C031C94282F30470776
:100110008400130893018316140C031C8C2883128B
:1001200013088000C70A82284310430883168700FB
:10013000831207148B10C0308B040130A1002E10E5
:1001400021182E148B108A111E28831607100614EE
:10015000851283129412C3124308831687008312F8
:1001600043164308831687008312C311430883167E
:100170008700203083129400C030831694008512CB
:1001800083128512431043088316870083120710D9
:1001900013082A3093008316140C031CCC288312F6
:1001A000AE18DB2813080D3093008316140C031CC3
:1001B000D628E22883121308ED3093008316140C1E
:1001C000031CDF2883121308C23093008316140C1B
:1001D000031CE72883121308C23093008316140C03
:1001E000031CEF2883121308C23093008316140CEB
:1001F000031CF72883121308C23093008316140CD3
:10020000031CFF28831243104308831687008312C0
:10021000071443104308831687008312071013083E
:10022000303093008316140C031C13298312AE186C
:10023000222913080D3093008316140C031C1D296A
:10024000292983121308ED3093008316140C031C24
:10025000262983121308C23093008316140C031C42
:100260002E2983121308C23093008316140C031C2A
:10027000362983121308C23093008316140C031C12
:100280003E2983121308C23093008316140C031CFA
:1002900046298312431043088316870083120714EC
:1002A0004310430883168700831207101308213078
:1002B00093008316140C031C5A298312130801306F
:1002C00093008316140C031C622983124310430805
:1002D0008316870083120714431043088316870090
:1002E000831207101308223093008316140C031C8A
:1002F000762983121308013093008316140C031C13
:100300007E29831243104308831687008312071443
:100310004310430883168700831207101308233005
:1003200093008316140C031C9229831213080330C4
:1003300093008316140C031C9A298312431043085C
:10034000831687008312071443104308831687001F
:10035000831207101308243093008316140C031C17
:10036000AE298312130893018316140C031CB529BC
:100370008312431043088316870083120714431027
:100380004308831687008312071013080530930073
:100390008316140C031CC9298312AE18D82913081C
:1003A000073093008316140C031CD329DF29831212
:1003B00013086F3093008316140C031CDC2983127E
:1003C0004310430883168700831207144310430821
:1003D00083168700831207101308263093008316B4
:1003E000140C031CF0298312130826309300831683
:1003F000140C031CF829831243104308831687004A
:1004000083120714431043088316870083120710D2
:100410001308273093008316140C031C0C2A831234
:100420001308703093008316140C031C142A8312D3
:1004300043104308831687008312071443104308B0
:100440008316870083120710130831309300831638
:10045000140C031C282A831213080A3093008316F5
:10046000140C031C302A83124310430883168700A0
:100470008312071443104308831687008312071062
:100480001308203093008316140C031C442A831293
:1004900013080F3093008316140C031C4C2A83128C
:1004A0004310430883168700831207140230C400E8
:1004B00044308400000803196A2A0630A100A00114
:1004C000A00B602AA10B5F2A7B30A000A00B662A3C
:1004D000800B5D2A8316851283128516F930A000E1
:1004E000A00B702A732A0B138B138B1B742A0B1609
:1004F000831601130614C03083128B048A11F52B66
:1005000083168512831285124310430883168700D1
:10051000831207101308273093008316140C031C52
:100520008E2A83121308703093008316140C031C58
:10053000962A8312431043088316870083120714F8
:100540004310430883168700831207101308A03056
:1005500093008316140C031CAA2A8312C4014408B6
:10056000093C031CC12A3930440784000008C60036
:10057000460893008316140C031CBB2A8312C40A7A
:10058000AF2A4310430883168700831207144310D1
:100590004308831687008312071013082030930046
:1005A0008316140C031CD12A831213080E309300F7
:1005B0008316140C031CD92A831243104308831694
:1005C000870083120714831685128312851618304C
:1005D000A000A00BE92AEC2A83168512831285124B
:1005E000AD01AC01831606148312061C022BAC0A63
:1005F0000319AD0A2C08903C031D012B2D0B012B78
:10060000022BF22A43104308831687008312071037
:100610001308073093008316140C031C0C2B831251
:10062000130893018316140C031C132B8312130855
:10063000C500431043088316870083120714431034
:10064000430883168700831207101308273093008E
:100650008316140C031C292B83121308703093008B
:100660008316140C031C312B83124310430883168A
:1006700087008312071443104308831687008312F0
:1006800007101308E13093008316140C031C452B4C
:100690008312431043088316870083120714431004
:1006A0004308831687008312071013082030930035
:1006B0008316140C031C592B831213080F3093005C
:1006C0008316140C031C612B8312431043088316FA
:1006D0008700831207148316851283128516F9305A
:1006E000A000A00B712B742B2C08F43C031D812B54
:1006F0002D0B812B8B10C0308B040030A100862B7A
:10070000862BC0308B048B100130A1008A11222C63
:1007100003081F398300813083169900A6309800A2
:10072000903083129800FF30C30083161F149F146B
:100730001F159F1107309C008312AC01AD012E10D4
:10074000AF01B001B101B201B301B401B501B6010D
:10075000B701B801B901BA01BB01BC01BD01BE01BD
:10076000BF01C001C101C201AE1083161F149F1446
:100770001F159F1183121F109412C3124308831672
:100780008700831243164308831687008312C31120
:1007900043088316870001308312940000308316CB
:1007A00094000108C7390838810083129001003095
:1007B000A100920000308316920007309C000508CB
:1007C000850010308312A000A00BE42B00008316DC
:1007D0001C0883120D1383169D0186178312861F32
:1007E000F32BAE14F42BAE10A5288C1E212C8C1EDE
:1007F000F72B1A08B900390F212C8C1EFD2B1A0873
:10080000BA008C1E012C1A08BB008C1E052C1A087D
:10081000BC008C1E092C1A08BD008C1E0D2C1A0859
:10082000BE008C1E112C1A08BF008C1E152C1A0835
:10083000C0008C1E192C1A08C1008C1E1D2C1A0811
:0E084000C200802A2E1021182E14F52B630002
:02400E00323F3F
:00000001FF
;PIC16F873A
;CRC=F6B5  CREATED="29-jul-15 18:21"
