:1000000002308A00822A0000FF00030E8301A5004F
:100010007F08A4000A08AB008A01A40E0408A60009
:100020002008A7002108A8002208A9002308AA0088
:10003000831383120B1E1E288B182F28260884007A
:100040002708A0002808A1002908A2002A08A30068
:100050002B088A00250E8300FF0E7F0E09008A11EF
:1000600031280B138B138B1B322843104308831644
:100070008700831207101308073093008316140CAF
:10008000031C3F288312130893018316140C031CCE
:10009000462883121308CD004310430883168700B7
:1000A0008312071443104308831687008312071036
:1000B0001308273093008316140C031C5C2883124A
:1000C0001308703093008316140C031C64288312E9
:1000D0004310430883168700831207144D1B7328AF
:1000E0000030A1009F284310430883168700831225
:1000F00007101308613093008316140C031C7D282D
:100100008312CC014C08093C031C94282F304C0767
:100110008400130893018316140C031C8C2883128B
:1001200013088000CC0A82284310430883168700F6
:10013000831207148B10C0308B040130A1002E10E5
:1001400021182E148B108A111E284B3084000008B1
:100150000319B7280630A100A001A00BAD28A10B00
:10016000AC287B30A000A00BB328800BAA28080085
:10017000831607100614851283129412C3124308C3
:100180008316870083124316430883168700831261
:10019000C311430883168700203083129400C030B7
:1001A0008316940085128312851243104308831628
:1001B00087008312071013082A3093008316140C4B
:1001C000031CDF288312AE18EE2813080D309300AD
:1001D0008316140C031CE928F52883121308ED304C
:1001E00093008316140C031CF22883121308C230E8
:1001F00093008316140C031CFA2883121308C230D0
:1002000093008316140C031C022983121308C230B6
:1002100093008316140C031C0A2983121308C2309E
:1002200093008316140C031C1229831243104308F5
:100230008316870083120714431043088316870030
:10024000831207101308303093008316140C031C1C
:1002500026298312AE18352913080D309300831612
:10026000140C031C30293C2983121308ED30930031
:100270008316140C031C392983121308C23093000F
:100280008316140C031C412983121308C2309300F7
:100290008316140C031C492983121308C2309300DF
:1002A0008316140C031C512983121308C2309300C7
:1002B0008316140C031C5929831243104308831618
:1002C00087008312071443104308831687008312A4
:1002D00007101308213093008316140C031C6D299A
:1002E00083121308013093008316140C031C752924
:1002F00083124310430883168700831207144310A8
:1003000043088316870083120710130822309300D6
:100310008316140C031C89298312130801309300DF
:100320008316140C031C912983124310430883166F
:100330008700831207144310430883168700831233
:1003400007101308233093008316140C031CA529EF
:1003500083121308033093008316140C031CAD2979
:100360008312431043088316870083120714431037
:100370004308831687008312071013082430930064
:100380008316140C031CC1298312130893018316CE
:10039000140C031CC82983124310430883168700DA
:1003A0008312071443104308831687008312071033
:1003B0001308053093008316140C031CDC298312E8
:1003C000AE18EB291308073093008316140C031C96
:1003D000E629F229831213086F3093008316140C58
:1003E000031CEF29831243104308831687008312EE
:1003F000071443104308831687008312071013085D
:10040000263093008316140C031C032A831213084E
:10041000263093008316140C031C0B2A83124310FE
:10042000430883168700831207144310430883167A
:100430008700831207101308273093008316140CCB
:10044000031C1F2A83121308703093008316140CA8
:10045000031C272A83124310430883168700831244
:1004600007144310430883168700831207101308EC
:10047000313093008316140C031C3B2A831213089B
:100480000A3093008316140C031C432A8312431072
:10049000430883168700831207144310430883160A
:1004A0008700831207101308203093008316140C62
:1004B000031C572A831213080F3093008316140C61
:1004C000031C5F2A8312431043088316870083129C
:1004D00007140230CB00A5208316851283128516DF
:1004E000F930A000A00B722A752A0B138B138B1BFB
:1004F000762A0B16831601130614C03083128B0460
:100500008A11F82A03081F398300FF30C3008316BD
:100510001F149F141F159F1107309C008312AC01FC
:10052000AD012E10AF01B001B101B201B301B401B0
:10053000B501B601B701B801B901BA01BB01BC01EF
:10054000BD01BE01BF01C001C101C201AE108316D1
:100550001F149F141F159F1183121F109412C31292
:1005600043088316870083124316430883168700C7
:100570008312C3114308831687000130831294004D
:100580000030831694000108C73908388100003014
:100590008312A10006389200FF30831692000730C4
:1005A0009C000508850010308312A000A00BD62AFD
:1005B000000083161C0883120D1383169D01051578
:1005C0008312051DE52AAE14E62AAE1083168515A2
:1005D00083128519F52A831605168312051AF22A45
:1005E000C401F42A0130C400F72A0230C400B8283C
:1005F0004311430883168700831207110C309700BC
:10060000C310430883168700831287100C309D00A7
:100610000330C600FF30C5000330C800FF30C700FC
:100620008316861083128610831606118312061114
:100630008316861183128611831606128312061200
:100640004608A2004508A100A20CA10CA20CA10C16
:10065000A20C21089500A20C220C3039A00017082A
:10066000CF39200497004808A2004708A100A20C37
:10067000A10CA20CA10CA20C21089B00A20C220C24
:100680003039A0001D08CF3920049D000830CA0071
:10069000FA30CB00A520CA0B482B83168610831294
:1006A000861083160611831206158316861183128F
:1006B000861183160612831206160430CA00FA3019
:1006C000CB00A520CA0B5F2B8316861083128610E1
:1006D0008316061183120611831686118312861162
:1006E00083160612831206122F0F012CC408031D55
:1006F0008D2B3008C900A301310DC500230DC600A4
:10070000C50DC60DFC30C505A301320DC700230D74
:10071000C800C70DC80DFC30C705440BA32B330818
:10072000C900A301340DC500230DC600C50DC60DBB
:10073000FC30C505A301350DC700230DC800C70D4A
:10074000C80DFC30C7054408023C031DBB2B36080E
:10075000C900A301370DC500230DC600C50DC60D88
:10076000FC30C505A301380DC700230DC800C70D17
:10077000C80DFC30C7054608A2004508A100A20C20
:10078000A10CA20CA10CA20C21089500A20C220C19
:100790003039A0001708CF39200497004808A2007C
:1007A0004708A100A20CA10CA20CA10CA20C2108CC
:1007B0009B00A20C220C3039A0001D08CF39200468
:1007C0009D00491AE52B0612E62B06168316061223
:1007D0008312C919ED2B8611EE2B8615831686110F
:1007E00083124919F52B0611F62B061583160611EF
:1007F0008312C918FD2B8610FE2B861483168610D3
:060800008312742B63005B
:02400E00323F3F
:00000001FF
;PIC16F873A
;CRC=BDCF  CREATED="07-ago-15 14:29"
